:100000000C9463000C948B000C948B000C948B006C
:100010000C948B000C948B000C948B000C94E805D2
:100020000C948B000C948B000C948B000C948B0024
:100030000C948B000C948B000C948B000C948B0014
:100040000C949E050C948B000C948B000C948B00EC
:100050000C948B000C948B000C948B000C948B00F4
:100060000C948B000C948B000000000023002600F1
:10007000290000000008000201000003040700003E
:100080000000000000000200000000250028002BF6
:100090000000000000240027002A000404040404D7
:1000A0000404040202020202020303030303030125
:1000B00002040810204080010204081020010204FC
:1000C00008102000E80811241FBECFEFD8E0DEBFE3
:1000D000CDBF21E0AEEBB1E001C01D92A43FB2075D
:1000E000E1F711E0A0E0B1E0EAE2FBE102C0059037
:1000F0000D92AE3BB107D9F710E0C3E6D0E004C0E3
:100100002197FE010E949B0BC236D107C9F70E94BE
:100110006A060C94930D0C94000090E0FC01E155EC
:10012000FF4F249185569F4FFC018491882399F0BD
:1001300090E0880F991FFC01EF56FF4FA591B491F5
:10014000FC01E957FF4F859194918FB7F894EC919A
:10015000E22BEC938FBF0895CF93809100018830FC
:1001600021F08F3F59F1CF910895E6E8F0E0C49176
:10017000C7FDF9CF88E00E948D00CC2309F48BC025
:10018000C23009F0A0C08091B100887F8560809363
:10019000B1008CEF8093B30087EF90E0A0E0B0E077
:1001A0008093CC019093CD01A093CE01B093CF0169
:1001B00080917000826080937000D5CF88E080933A
:1001C0000001E6E8F0E0C491CF3F69F2C13019F1D7
:1001D00048F0C23009F43DC0C7FDC5CF88E00E9499
:1001E0008D00CECF14BC15BC84B5826084BD85B5AE
:1001F000816085BDE3EAF0E0E491F0E0EE0FFF1FDF
:10020000E957FF4F85919491E7EBF0E0E491E0939B
:10021000CB01C0E0AFCF109280001092810080919E
:10022000810088608093810080918100816080934B
:100230008100E3EAF0E0E491F0E0EE0FFF1FE95700
:10024000FF4F85919491E7EBF0E0E491E093CA01D0
:1002500091CF1092B0001092B1008091B0008260F6
:100260008093B0008091B10081608093B100E3EA97
:10027000F0E0E491F0E0EE0FFF1FE957FF4F8591AA
:1002800094919093C9018093C801E7EBF0E0E49169
:10029000E093C7016FCF85B5887F846085BD8DE70A
:1002A00087BD87EF90E0A0E0B0E08093D401909309
:1002B000D501A093D601B093D70180916E008260E2
:1002C00080936E0050CFC130F1F480918100887F1F
:1002D00081608093810083E89EE7909389008093FA
:1002E000880087EF90E0A0E0B0E08093D001909389
:1002F000D101A093D201B093D30180916F008260AD
:1003000080936F0030CFC23021F0C1112CCF83E831
:10031000C7CF83E83FCF833081F028F4813099F054
:100320008230A9F008958730A9F08830C9F0843070
:10033000B1F4809180008F7D03C0809180008F7721
:1003400080938000089584B58F7784BD089584B527
:100350008F7DFBCF8091B0008F778093B0000895A0
:100360008091B0008F7DF9CF1F93CF93DF93282F1B
:1003700030E0F901EE58FF4F8491F901E155FF4F4C
:10038000D491F901E556FF4FC491CC23A9F0162F63
:1003900081110E948B01EC2FF0E0EE0FFF1FE95757
:1003A000FF4FA591B4918FB7F894EC91111108C04B
:1003B000D095DE23DC938FBFDF91CF911F910895FD
:1003C000DE2BF8CF8E50806480937C0080917A0081
:1003D000806480937A0080917A0086FDFCCF8091C2
:1003E00078009091790008953FB7F8948091C30107
:1003F0009091C401A091C501B091C60126B5A89BFA
:1004000005C02F3F19F00196A11DB11D3FBFBA2FA6
:10041000A92F982F8827BC01CD01620F711D811D66
:10042000911D42E0660F771F881F991F4A95D1F7EB
:1004300008958F929F92AF92BF92CF92DF92EF92E8
:10044000FF924B015C010E94F4016B017C010E9450
:10045000F4016C197D098E099F09683E734081057E
:100460009105A8F321E0821A9108A108B10888EE4D
:10047000C80E83E0D81EE11CF11C81149104A10474
:10048000B10429F7FF90EF90DF90CF90BF90AF902D
:100490009F908F900895AF92BF92CF92DF92EF928C
:1004A000FF920F931F93CF93DF936C017B018B011E
:1004B000040F151FEB015E01AE18BF08C017D1076E
:1004C00059F06991D601ED91FC910190F081E02DF8
:1004D000C6010995892B79F7C501DF91CF911F914D
:1004E0000F91FF90EF90DF90CF90BF90AF90089565
:1004F000089590E080E00895FC0101900020E9F764
:100500003197AF01481B590BBC0188ED91E00C9469
:100510004B028F929F92AF92BF920F931F93CF93F4
:10052000DF93CDB7DEB7A1970FB6F894DEBF0FBE4D
:10053000CDBF19A2423008F44AE08E010F5D1F4F73
:10054000842E912CB12CA12CA50194010E94790B31
:10055000E62FB901CA01EA30F4F4E05DD801EE9368
:100560008D01232B242B252B79F790E080E0109729
:1005700019F0CD010E947C02A1960FB6F894DEBF5F
:100580000FBECDBFDF91CF911F910F91BF90AF9064
:100590009F908F900895E95CE1CFCF93DF930E9405
:1005A0007C02EC0183E191E00E947C028C0F9D1F94
:1005B000DF91CF910895CF93DF93EC0160E08E81BE
:1005C0000E94B40161E08E810E94B40160E08E81DE
:1005D0000E94B4018BE891E00197F1F7DF91CF9190
:1005E0000895CF92DF92EF92FF920F931F93CF93D4
:1005F000DF936C017C0187E0E80EF11CD0E0C0E0E5
:10060000062F10E0B8010C2E02C0759567950A946C
:10061000E2F76170F70181917F010E94B401219698
:10062000C430D10579F7C601DF91CF911F910F91A9
:10063000FF90EF90DF90CF900C94DB02CF92DF928F
:10064000EF92FF920F931F93CF93DF93EC01F62E5F
:10065000642F8C810E94B4018D818F3F19F060E07E
:100660000E94B4010F2D10E08F8584FF25C06E011C
:1006700087E0C80ED11CF12CE12CB8010E2C02C071
:10068000759567950A94E2F76170F60181916F01A3
:100690000E94B401FFEFEF1AFF0A88E0E816F104A8
:1006A00061F7CE01DF91CF911F910F91FF90EF90F5
:1006B000DF90CF900C94DB02B80184E075956795CC
:1006C0008A95E1F7CE010E94F1026F2DCE01DF91F4
:1006D000CF911F910F91FF90EF90DF90CF900C94EE
:1006E000F10240E0682F88ED91E00C941E0381E058
:1006F0000E9471038BE39FE10197F1F70895CF9377
:10070000DF93823029F49091E70198609093E7019C
:100710008093EB011092EC0180E48093ED0180E185
:100720008093EE0180E58093EF018091DC010E94CF
:100730008D008091DD018F3F11F00E948D0080912E
:10074000DE010E948D00C8EDD1E09E01285D3140A0
:100750008091E70184FD0AC084E090E0219628178B
:1007600039073CF48E810E948D00EFCF88E090E045
:10077000F5CF8BE39DE00197F1F760E08091DC011C
:100780000E94B40160E08091DE010E94B40180917A
:10079000DD018F3F19F060E00E94B4018091E70114
:1007A00084FD34C063E088ED91E00E94F102CBE467
:1007B000D6E4CE010197F1F763E088ED91E00E9465
:1007C000F1022197F1F763E088ED91E00E94F102D8
:1007D00083E592E00197F1F762E088ED91E00E94F5
:1007E000F1028091E70180620E94710384E08093AE
:1007F000E8018CE00E9471030E94770382E08093FD
:10080000E90186E0DF91CF910C94710380620E9430
:1008100071038BE496E40197F1F78091E701806220
:100820000E94710383E592E00197F1F78091E7015F
:1008300080620E947103D5CF9091EB01891710F06F
:100840008FEF890FE82FF0E0E852FE4F848980682F
:100850000C947103CF93DF93EC0182E00E941C049F
:1008600086E191E00E94CD0264EF71E080E090E0CB
:100870000E9419020E94770380E00E941C048FE10D
:1008800091E00E947C0281E00E941C044C815D8109
:100890006881798188ED91E00E944B0283E191E0CB
:1008A000DF91CF910C947C0241E00E941E0381E015
:1008B00090E008954F925F926F927F928F929F92F5
:1008C000AF92BF92CF92DF92EF92FF920F931F935E
:1008D000CF936B017C01742EAC019B010E94740BC1
:1008E000882399F080E391E0CF911F910F91FF90C1
:1008F000EF90DF90CF90BF90AF909F908F907F90C0
:100900006F905F904F900C947C0246015701E894E1
:10091000B7F82FEF3FEF4FE75FE7C501B4010E9443
:10092000740B81110DC02FEF3FEF4FE75FE7C5015B
:10093000B4010E94060918161CF484E391E0D4CF98
:100940002FEF3FEF4FE75FE4C701B6010E946F0B47
:1009500018161CF488E391E0C7CF2FEF3FEF4FE765
:100960005FECC701B6010E94060987FDF3CF20E0C6
:1009700030E0A901C701B6010E94060910E000E0BD
:1009800087FF0CC041E06DE288ED91E00E941E03FC
:10099000F7FAF094F7F8F09401E010E0C0E060E0BE
:1009A00070E080E09FE37C1641F020E030E040E220
:1009B00051E40E94CE0ACF5FF6CFA70196010E94B4
:1009C000620A4B015C010E94400B2B013C014AE092
:1009D0000E948902080F191FCC23C9F1C301B2017B
:1009E0000E940B099B01AC01C501B4010E94610A80
:1009F0004B015C0141E06EE288ED91E00E941E0334
:100A00000F5F1F4FC15018F120E030E040E251E489
:100A1000C501B4010E946C092B013C010E94400BEE
:100A20004B01B12CA12C4AE0C501B4010E948902FE
:100A3000080F191FC501B4010E940B099B01AC01ED
:100A4000C301B2010E94610A4B015C01DBCFC80106
:100A5000CF911F910F91FF90EF90DF90CF90BF90BB
:100A6000AF909F908F907F906F905F904F90089580
:100A7000FC0180819181009711F00C943D0C089548
:100A80000F931F93CF93DF93EC0188819981009797
:100A900059F02A813B812617370730F081E0DF913A
:100AA000CF911F910F9108958B016F5F7F4F0E942F
:100AB000C60C009759F0998388831B830A832C8185
:100AC0003D81232B59F7FC011082E8CF80E0E7CF6E
:100AD000EF92FF920F931F93CF93DF93EC017B0173
:100AE000FB0101900020E9F731978F01061B170BDE
:100AF000B8010E94400528813981811113C0211558
:100B0000310519F0C9010E943D0C198218821D821D
:100B10001C821B821A82DF91CF911F910F91FF904F
:100B2000EF9008951D830C83B701C901DF91CF9128
:100B30001F910F91FF90EF900C948C0D1F920F92CC
:100B40000FB60F9211242F933F938F939F93AF93E0
:100B5000BF938091BF019091C001A091C101B0915C
:100B6000C2013091BE0123E0230F2D3758F50196C5
:100B7000A11DB11D2093BE018093BF019093C001C0
:100B8000A093C101B093C2018091C3019091C401AF
:100B9000A091C501B091C6010196A11DB11D809320
:100BA000C3019093C401A093C501B093C601BF9146
:100BB000AF919F918F913F912F910F900FBE0F900A
:100BC0001F90189526E8230F0296A11DB11DD2CFC4
:100BD0001F920F920FB60F9211242F933F934F93B2
:100BE0005F936F937F938F939F93AF93BF93EF9395
:100BF000FF938091CC019091CD01A091CE01B09155
:100C0000CF01892B8A2B8B2BD1F19091C701E091D9
:100C1000C801F091C9018081892780838091CC012E
:100C20009091CD01A091CE01B091CF011816190677
:100C30001A061B069CF48091CC019091CD01A091E5
:100C4000CE01B091CF010197A109B1098093CC01E8
:100C50009093CD01A093CE01B093CF01FF91EF917E
:100C6000BF91AF919F918F917F916F915F914F91C4
:100C70003F912F910F900FBE0F901F90189580916C
:100C80000001E6E8F0E0E4919FEF90930001E1308D
:100C900051F030F0E23069F060E00E94B401DECF44
:100CA00010926E00F9CF90916F009D7F90936F002E
:100CB000F3CF909170009D7F9093700091E090939E
:100CC000B0009091B100987F94609093B100109221
:100CD000B300E2CFCF93DF93CDB7DEB76A970FB6FD
:100CE000F894DEBF0FBECDBF789484B5826084BD1A
:100CF00084B5816084BD85B5826085BD85B5816020
:100D000085BD80916E00816080936E00109281009D
:100D10008091810082608093810080918100816058
:100D20008093810080918000816080938000809119
:100D3000B10084608093B1008091B00081608093A5
:100D4000B00080917A00846080937A0080917A006C
:100D5000826080937A0080917A00816080937A002B
:100D600080917A00806880937A001092C10082E0BE
:100D70000E947F0389E00E948D008AE00E948D001E
:100D80008BE00E948D008DE00E948D008E010B5E35
:100D90001F4F5E0181E1A80EB11C30E0832E30E0D0
:100DA000932ECC24C394D12CCC0EDD1E92E1C90E1F
:100DB000D11C0E947703FE0131967F018EE00E94D4
:100DC000E201F701819391937F016EE170E080E091
:100DD00090E00E941902E016F10681F7FE013196BB
:100DE000DF018081918112962D913C9113972817F4
:100DF000390734F43183208313969C938E93129792
:100E00001296CA16DB0669F73296EC15FD0541F716
:100E1000FE01359660E070E0CB012191319129010E
:100E2000330F66087708640D751D861D971DAE1675
:100E3000BF0699F70E940B0920E030E040EA50E439
:100E40000E946C0920E030E040E85AE30E946C09FF
:100E500020E030E040EC50E40E94CE0A26E636E680
:100E600046EB50EC0E946C0922E538EB4AEA51E46B
:100E70000E94620A2B013C0120E030E0A9010E949F
:100E8000060987FD3FC120E030E040E651E4C301A0
:100E9000B2010E946F0B18160CF438C120E030E04C
:100EA00040ED50E4C301B2010E94060987FD0BC06A
:100EB00020E030E040E151E4C301B2010E946F0B39
:100EC00060E018161CF40E94AC0061E089E00E940A
:100ED000B40180E00E941C048CE391E00E947C023B
:100EE00042E0C301B2010E945A0464E670E080E06F
:100EF00090E00E94190220E030E040ED50E4C30190
:100F0000B2010E94060987FD0AC020E030E040E1FE
:100F100051E4C301B2010E946F0B18169CF40E94A9
:100F2000AC001E8A1D8A188E1F8A1A8E198E65E4DF
:100F300071E0C8010E946805C8010E942A04C80126
:100F40000E94380564EF71E080E090E00E94190291
:100F50000E9477038FE00E94E201BC01990F880B89
:100F6000990B0E940D0920E030E040E85AE30E940E
:100F70006C0920E030E44CE955E40E946C0920E063
:100F800030E040E251E40E94CE0A1B012C018EE4C5
:100F900091E00E947C0242E0C201B1010E945A0429
:100FA00080E691E00E947C0220E030E040E152E4E3
:100FB000C201B1010E946F0B18165CF020E030E016
:100FC00040ED51E4C201B1010E94060960E087FFD3
:100FD00027C00E94AC001A8219821C821B821E82CA
:100FE0001D826AE070E0CE0101960E9440052981D1
:100FF0003A81811192C02115310519F0C9010E9471
:101000003D0C1A8219821E821D821C821B82CE0117
:1010100001960E942A04CE0101960E94380561E0E3
:101020008BE00E94B40164EF71E080E090E00E94E8
:1010300019020E94770382E691E00E947C0281E01F
:101040000E941C0481E10E94E201853691050CF0AA
:101050006EC080E791E00E94CD020E94AC001A822F
:1010600019821C821B821E821D8266E771E0CE01FE
:1010700001960E946805CE0101960E942A04CE01C5
:1010800001960E94380561E08AE00E94B40164EF95
:1010900071E080E090E00E9419020E947703EEE781
:1010A000F0E08491EBEBF0E0F490E7EAF0E0E4901C
:1010B000EE2009F454C081110E948B01EE2DF0E066
:1010C000EE0FFF1FE859FF4FA591B4918C91F822C4
:1010D00009F445C080E00E941C0486E991E00E946A
:1010E0007C0260E08DE00E94B40164EF71E080E07A
:1010F00090E00E9419028114910409F45ACE0E94D2
:1011000000004FCE412C512C3201DDCE412C512C10
:1011100090E6692E91E4792ED6CE8AE090E09E8307
:101120008D8367E571E0C9010E948C0D70CF9C0131
:1011300025563109283C310518F486E891E08BCF1B
:101140008D5291404E9730F48AE891E00E94CD0292
:1011500060E09ACF81E991E00E947C02F9CF80E0C3
:101160000E941C0484EA91E00E947C020E94AC0070
:101170001A8219821C821B821E821D826BE070E023
:10118000CE0101960E94400529813A81811116C045
:101190002115310519F0C9010E943D0C1A821982EE
:1011A0001E821D821C821B82CE0101960E942A048F
:1011B000CE0101960E94380561E094CF8BE090E06B
:1011C0009E838D8362EB71E0C9010E948C0DECCF90
:1011D000E8EDF1E0138212828BE091E0918380834D
:1011E00087E084838FEF858386E0868385E087832D
:1011F00084E0808783E0818782E08287138614867B
:1012000015861686178681E00C947F030E94480994
:1012100008F481E00895E89409C097FB3EF49095A6
:101220008095709561957F4F8F4F9F4F9923A9F0BF
:10123000F92F96E9BB279395F6958795779567954E
:10124000B795F111F8CFFAF4BB0F11F460FF1BC092
:101250006F5F7F4F8F4F9F4F16C0882311F096E925
:1012600011C0772321F09EE8872F762F05C06623D3
:1012700071F096E8862F70E060E02AF09A95660F8C
:10128000771F881FDAF7880F9695879597F9089545
:10129000990F0008550FAA0BE0E8FEEF1616170687
:1012A000E807F907C0F012161306E407F50798F0EF
:1012B000621B730B840B950B39F40A2661F0232B08
:1012C000242B252B21F408950A2609F4A140A69584
:1012D0008FEF811D811D08950E947F090C94F009F4
:1012E0000E94E20938F00E94E90920F0952311F0EC
:1012F0000C94D9090C94DF0911240C94240A0E943F
:10130000010A70F3959FC1F3950F50E0551F629F3E
:10131000F001729FBB27F00DB11D639FAA27F00D4E
:10132000B11DAA1F649F6627B00DA11D661F829F75
:101330002227B00DA11D621F739FB00DA11D621F5A
:10134000839FA00D611D221F749F3327A00D611D77
:10135000231F849F600D211D822F762F6A2F112459
:101360009F5750409AF0F1F088234AF0EE0FFF1F8C
:10137000BB1F661F771F881F91505040A9F79E3FE3
:10138000510580F00C94D9090C94240A5F3FE4F3D2
:10139000983ED4F3869577956795B795F795E79539
:1013A0009F5FC1F7FE2B880F911D9695879597F942
:1013B000089597F99F6780E870E060E008959FEFD7
:1013C00080EC089500240A941616170618060906DC
:1013D000089500240A9412161306140605060895AB
:1013E000092E0394000C11F4882352F0BB0F40F433
:1013F000BF2B11F460FF04C06F5F7F4F8F4F9F4F73
:10140000089557FD9058440F551F59F05F3F71F0F4
:101410004795880F97FB991F61F09F3F79F087955B
:101420000895121613061406551FF2CF4695F1DFE4
:1014300008C0161617061806991FF1CF8695710574
:10144000610508940895E894BB2766277727CB01A8
:1014500097F908952F923F924F925F926F927F92E9
:101460008F929F92AF92BF92CF92DF92EF92FF92B4
:101470000F931F93CF93DF93CDB7DEB7CA1BDB0B60
:101480000FB6F894DEBF0FBECDBF09942A88398805
:1014900048885F846E847D848C849B84AA84B9840C
:1014A000C884DF80EE80FD800C811B81AA81B98118
:1014B000CE0FD11D0FB6F894DEBF0FBECDBFED012C
:1014C00008955058BB27AA270E94790A0C94F00966
:1014D0000E94E20938F00E94E90920F039F49F3FA8
:1014E00019F426F40C94DF090EF4E095E7FB0C9454
:1014F000D909E92F0E94010A58F3BA176207730746
:101500008407950720F079F4A6F50C94230A0EF4CD
:10151000E0950B2EBA2FA02D0B01B90190010C0103
:10152000CA01A0011124FF27591B99F0593F50F41B
:10153000503E68F11A16F040A22F232F342F442773
:10154000585FF3CF469537952795A795F04053956B
:10155000C9F77EF41F16BA0B620B730B840BBAF03B
:101560009150A1F0FF0FBB1F661F771F881FC2F7A6
:101570000EC0BA0F621F731F841F48F487957795BA
:101580006795B795F7959E3F08F0B0CF9395880F74
:1015900008F09927EE0F9795879508950E94E20A23
:1015A0000C94F0090E94E90958F00E94E20940F009
:1015B00029F45F3F29F00C94D90951110C94240AA5
:1015C0000C94DF090E94010A68F39923B1F35523B3
:1015D00091F3951B550BBB27AA2762177307840746
:1015E00038F09F5F5F4F220F331F441FAA1FA9F3DC
:1015F00035D00E2E3AF0E0E832D091505040E695CA
:10160000001CCAF72BD0FE2F29D0660F771F881F2A
:10161000BB1F261737074807AB07B0E809F0BB0B1D
:10162000802DBF01FF2793585F4F3AF09E3F510531
:1016300078F00C94D9090C94240A5F3FE4F3983EA7
:10164000D4F3869577956795B795F7959F5FC9F71A
:10165000880F911D9695879597F90895E1E0660F9B
:10166000771F881FBB1F621773078407BA0720F014
:10167000621B730B840BBA0BEE1F88F7E09508957D
:101680000E94090A88F09F5798F0B92F9927B751FF
:10169000B0F0E1F0660F771F881F991F1AF0BA9516
:1016A000C9F714C0B13091F00E94230AB1E0089547
:1016B0000C94230A672F782F8827B85F39F0B93F39
:1016C000CCF3869577956795B395D9F73EF49095C9
:1016D0008095709561957F4F8F4F9F4F08950E9421
:1016E000480908F48FEF08950E944809880B990B68
:1016F0000895A1E21A2EAA1BBB1BFD010DC0AA1F53
:10170000BB1FEE1FFF1FA217B307E407F50720F06A
:10171000A21BB30BE40BF50B661F771F881F991FE5
:101720001A9469F760957095809590959B01AC012E
:10173000BD01CF010895EE0FFF1F0590F491E02D3C
:1017400009940F931F93CF93DF938230910510F488
:1017500082E090E0E091F201F091F30130E020E0CE
:10176000B0E0A0E0309799F42115310509F44AC0A2
:10177000281B390B24303105D8F58A819B816115EE
:10178000710589F1FB0193838283FE0111C04081C1
:1017900051810281138148175907E0F04817590712
:1017A00099F4109761F012960C93129713961C936C
:1017B0003296CF01DF91CF911F910F910895009341
:1017C000F2011093F301F4CF2115310551F04217C6
:1017D000530738F0A901DB019A01BD01DF01F801CF
:1017E000C1CFEF01F9CF9093F3018093F201CDCFF8
:1017F000FE01E20FF31F8193919322503109398347
:101800002883D7CF2091F0013091F101232B41F4AF
:1018100020910301309104013093F1012093F001F4
:1018200020910101309102012115310541F42DB7BC
:101830003EB74091050150910601241B350BE09104
:10184000F001F091F101E217F307A0F42E1B3F0B1A
:101850002817390778F0AC014E5F5F4F2417350722
:1018600048F04E0F5F1F5093F1014093F0018193B8
:1018700091939FCFF0E0E0E09CCFCF93DF93009770
:10188000E9F0FC01329713821282A091F201B0912B
:10189000F301ED0130E020E01097A1F420813181C7
:1018A000820F931F2091F0013091F1012817390721
:1018B00009F061C0F093F101E093F001DF91CF9165
:1018C0000895EA01CE17DF07E8F54A815B819E01A2
:1018D00041155105B1F7E901FB83EA83499159911B
:1018E000C40FD51FEC17FD0761F48081918102962A
:1018F000840F951FE90199838883828193819B835B
:101900008A83F0E0E0E012968D919C911397009706
:10191000B9F52D913C911197CD010296820F931F3D
:101920002091F0013091F1012817390739F63097ED
:1019300051F51092F3011092F201B093F101A093CE
:10194000F001BCCFD383C28340815181840F951FA6
:10195000C817D90761F44E5F5F4F88819981480F9E
:10196000591F518340838A819B81938382832115F0
:10197000310509F0B0CFF093F301E093F2019ECF6F
:10198000FD01DC01C0CF13821282D7CFB0E0A0E00E
:10199000ECECFCE00C942C0A8C01009751F4CB0188
:1019A0000E94A10B8C01C801CDB7DEB7E0E10C9419
:1019B000480AFC01E60FF71F9C0122503109E2178B
:1019C000F30708F49DC0D901CD91DC911197C6179A
:1019D000D70798F0C530D10530F3CE0104978617AC
:1019E000970708F3C61BD70B2297C193D1936D932A
:1019F0007C93CF010E943D0CD6CF5B01AC1ABD0A8F
:101A00004C018C0E9D1EA091F201B091F301512C5E
:101A1000412CF12CE12C109731F58091F00190913F
:101A2000F1018815990509F05CC04616570608F0C3
:101A300058C08091010190910201009741F48DB747
:101A40009EB74091050150910601841B950BE81744
:101A5000F90708F055C0F093F101E093F001F901A6
:101A600071836083A0CF8D919C91119712966C9099
:101A7000129713967C901397A815B90559F56C0128
:101A800042E0C40ED11CCA14DB0420F1AC014A1997
:101A90005B09DA011296159780F062827382518396
:101AA0004083D9016D937C93E114F10471F0D70167
:101AB0001396FC93EE93129776CF22968C0F9D1F70
:101AC000F90191838083F301EFCFF093F301E09369
:101AD000F20169CF4816590608F42C017D01D301A3
:101AE0009ACFCB010E94A10B7C01009749F0AE0177
:101AF000B8010E94830DC8010E943D0C870153CF9D
:101B000010E000E050CFFB01DC0102C001900D921B
:101B100041505040D8F70895FB01DC0101900D922F
:0A1B20000020E1F70895F894FFCFCC
:101B2A00FF0000F40180000000000054044B027919
:101B3A000278020D0A004E4F542053414645005385
:101B4A0055474745535445442052414E47453A006C
:101B5A006E616E00696E66006F7666007048205688
:101B6A00616C3A2000362E3520746F203900546596
:101B7A006D7020203D200032364320746F203336AA
:101B8A0043005741544552204C4556454C3A200093
:101B9A00456D707479006D6F7265207468616E208E
:101BAA00333030636D004C6F77004D656469756D35
:101BBA000048696768004F32206C6576656C20685A
:101BCA00696768004F32206C6576656C206C6F77A8
:0E1BDA0020003520746F2032302070706D00B6
:00000001FF
